{
  "contractName": "Permafund",
  "abi": [
    {
      "inputs": [
        {
          "internalType": "address",
          "name": "_recipient",
          "type": "address"
        }
      ],
      "stateMutability": "nonpayable",
      "type": "constructor"
    },
    {
      "inputs": [],
      "name": "recipient",
      "outputs": [
        {
          "internalType": "address",
          "name": "",
          "type": "address"
        }
      ],
      "stateMutability": "view",
      "type": "function"
    }
  ],
  "bytecode": "0x608060405234801561001057600080fd5b5060405161020d38038061020d8339818101604052602081101561003357600080fd5b8101908080519060200190929190505050806000806101000a81548173ffffffffffffffffffffffffffffffffffffffff021916908373ffffffffffffffffffffffffffffffffffffffff160217905550736b175474e89094c44da98b954eedeac495271d0f600160006101000a81548173ffffffffffffffffffffffffffffffffffffffff021916908373ffffffffffffffffffffffffffffffffffffffff16021790555073261b45d85ccfeabb11f022eba346ee8d1cd488c0600260006101000a81548173ffffffffffffffffffffffffffffffffffffffff021916908373ffffffffffffffffffffffffffffffffffffffff1602179055505060d08061013d6000396000f3fe6080604052348015600f57600080fd5b506004361060285760003560e01c806366d003ac14602d575b600080fd5b60336075565b604051808273ffffffffffffffffffffffffffffffffffffffff1673ffffffffffffffffffffffffffffffffffffffff16815260200191505060405180910390f35b6000809054906101000a900473ffffffffffffffffffffffffffffffffffffffff168156fea264697066735822122093cc394ae1c6625ee5c988f2e8acb9a40c0c342b8145ee8194eb6f615f464dec64736f6c63430006080033",
  "immutableReferences": {},
  "source": "pragma solidity ^0.6.8;\r\n\r\nimport \"./interfaces/IRDai.sol\";\r\nimport \"@openzeppelin/contracts/token/ERC20/IERC20.sol\";\r\n\r\ncontract Permafund {\r\n\r\n    address public recipient;\r\n\r\n    IERC20 private dai;\r\n    IRDai private rDai;\r\n\r\n    constructor(address _recipient) public {\r\n        recipient = _recipient;\r\n        dai = IERC20(0x6B175474E89094C44Da98b954EedeAC495271d0F);\r\n        rDai = IRDai(0x261b45D85cCFeAbb11F022eBa346ee8D1cd488c0);\r\n\r\n\r\n    }\r\n}",
  "sourcePath": "C:\\Users\\alexa\\Desktop\\permafund\\contracts\\Permafund.sol",
  "compiler": {
    "name": "solc",
    "version": "0.6.8+commit.0bbfe453.Emscripten.clang"
  },
  "schemaVersion": "3.1.0",
  "updatedAt": "2020-05-18T14:16:14.708Z",
  "devdoc": {
    "methods": {}
  },
  "userdoc": {
    "methods": {}
  }
}